:10000000020003780079007A007B007C007D007E8E
:10001000007F00740075F00075B0FF02001E120032
:10002000261200A380F8C2B230B40B30B50D30B741
:100030000FD2B20200457401020062740202006233
:100040007403020062C2B330B40930B50B30B70D8F
:10005000D2B32274040200687405020068740602B8
:100060000068D2B212006E22D2B312006E22B80023
:1000700002F822B90006C000D000F822BA000AC077
:1000800000D000C000D000F822BB000EC000D0009D
:10009000C000D000C000D000F822780079007A00BB
:1000A0007B0022E82410F5A0227FFFDFFE227E6481
:0500B00011A9DEFA2297
:00000001FF
