:1000000002000E78BF79BF7ABF7BBF7C003278BF19
:1000100079BF7ABF7BBF7C007D007E007F007400CB
:1000200075F00075B0FF0200291200DD12006112A8
:1000300000DD1200DD1200DD1200DD1200DD120015
:10004000DD1200DD1200DD1200DD1200DD1200DD28
:100050001200DD1200DD1200DD1200DD1200DD8075
:10006000C875B0FFC2B230B40B30B50D30B70FD287
:10007000B202008374010200A074020200A07403A3
:100080000200A0C2B330B40930B50B30B70DD2B303
:100090002274040200A674050200A674060200A6DB
:1000A000D2B21200AC22D2B31200AC22B8BF04F814
:1000B0007C0122B9BF0888F0A9F0F87C0222BABFFF
:1000C0000C89F0AAF088F0A9F0F87C03228AF0AB42
:1000D000F089F0AAF088F0A9F0F87C0422BC0004B2
:1000E00075A0BF22BC0106E82400F5A022BC020EC8
:1000F000E82400F5A012013BE92410F5A022BC037E
:1001000016E82400F5A012013BE92410F5A0120125
:100110003BEA2420F5A022BC0420E82400F5A0122C
:10012000013BE92410F5A012013BEA2420F5A012BE
:10013000013BEB2430F5A012013B227FFF7E04DE61
:10014000FEDFFA227F64DFFE227E643144DEFC2281
:00000001FF
